:020000020000FC
:10000000209A2898219A2998229A2A98579856989F
:10001000F1E009B107FD02C0289801C0289A19B182
:1000200016FD27C02A98F03009F048C023E0299A2D
:100030002F938F939F9322E38EE39CE90197F1F72F
:100040002A95D1F700009F918F912F9129982F9396
:100050008F939F9322E38EE39CE90197F1F72A9512
:10006000D1F700009F918F912F912A9501F7F39579
:1000700025C02A9AF13010F122E0299A2F938F930C
:100080009F9322E38EE39CE90197F1F72A95D1F73C
:1000900000009F918F912F9129982F938F939F9379
:1000A00022E38EE39CE90197F1F72A95D1F700004E
:0E00B0009F918F912F912A9501F7FA95AACF73
:00000001FF
